{
  "transactions": [
    {
      "hash": "0x7d10297626162e901a8f1b70c65a2da61fa76485cfb33f51951ef64c3cebdcb1",
      "transactionType": "CALL",
      "contractName": null,
      "contractAddress": "0xd7d78c1758f4c26a166d06b7137d0123b9fd15f6",
      "function": "mint(address,uint256)",
      "arguments": [
        "0xD41B398F6CE5bF08B7d51B22b6Adae4fCd04d26a",
        "10000000000"
      ],
      "transaction": {
        "from": "0xd41b398f6ce5bf08b7d51b22b6adae4fcd04d26a",
        "to": "0xd7d78c1758f4c26a166d06b7137d0123b9fd15f6",
        "gas": "0xdccc",
        "value": "0x0",
        "input": "0x40c10f19000000000000000000000000d41b398f6ce5bf08b7d51b22b6adae4fcd04d26a00000000000000000000000000000000000000000000000000000002540be400",
        "nonce": "0x8",
        "chainId": "0x128"
      },
      "additionalContracts": [],
      "isFixedGasLimit": false
    }
  ],
  "receipts": [
    {
      "status": "0x1",
      "cumulativeGasUsed": "0xb0a4",
      "logs": [
        {
          "address": "0xd7d78c1758f4c26a166d06b7137d0123b9fd15f6",
          "topics": [
            "0xddf252ad1be2c89b69c2b068fc378daa952ba7f163c4a11628f55a4df523b3ef",
            "0x0000000000000000000000000000000000000000000000000000000000000000",
            "0x000000000000000000000000d41b398f6ce5bf08b7d51b22b6adae4fcd04d26a"
          ],
          "data": "0x00000000000000000000000000000000000000000000000000000002540be400",
          "blockHash": "0xd3e0b885f2e31e9bc00ce1eca993c044a7fd5dde6a4cbbe0b140af25215ac4bd",
          "blockNumber": "0x19b183a",
          "blockTimestamp": "0x6904e8a8",
          "transactionHash": "0x7d10297626162e901a8f1b70c65a2da61fa76485cfb33f51951ef64c3cebdcb1",
          "transactionIndex": "0x6",
          "logIndex": "0x0",
          "removed": false
        },
        {
          "address": "0xd7d78c1758f4c26a166d06b7137d0123b9fd15f6",
          "topics": [
            "0x3f2c9d57c068687834f0de942a9babb9e5acab57d516d3480a3c16ee165a4273",
            "0x000000000000000000000000d41b398f6ce5bf08b7d51b22b6adae4fcd04d26a"
          ],
          "data": "0x00000000000000000000000000000000000000000000000000000002540be400",
          "blockHash": "0xd3e0b885f2e31e9bc00ce1eca993c044a7fd5dde6a4cbbe0b140af25215ac4bd",
          "blockNumber": "0x19b183a",
          "blockTimestamp": "0x6904e8a8",
          "transactionHash": "0x7d10297626162e901a8f1b70c65a2da61fa76485cfb33f51951ef64c3cebdcb1",
          "transactionIndex": "0x6",
          "logIndex": "0x1",
          "removed": false
        }
      ],
      "logsBloom": "0x00000000000000000000000000000000000000000000000001000000000000000000000000000000000000000000000000400000000000000000000000000000000000000000000000000008000000000000000000000000000000000000000000000000020000000000000000000800000000000000000000000010000000000000000000000000000000000000000100000000010000000000000000000000000000000000000010000000000000000000000000000000000000000000000000000002000000000000000000008800000000000000000000000800000020000000000100000000000000000000000000000000000000000000000000000000",
      "type": "0x2",
      "transactionHash": "0x7d10297626162e901a8f1b70c65a2da61fa76485cfb33f51951ef64c3cebdcb1",
      "transactionIndex": "0x6",
      "blockHash": "0xd3e0b885f2e31e9bc00ce1eca993c044a7fd5dde6a4cbbe0b140af25215ac4bd",
      "blockNumber": "0x19b183a",
      "gasUsed": "0xb0a4",
      "effectiveGasPrice": "0x641dff4c00",
      "from": "0xd41b398f6ce5bf08b7d51b22b6adae4fcd04d26a",
      "to": "0xd7d78c1758f4c26a166d06b7137d0123b9fd15f6",
      "contractAddress": "0xd7d78c1758f4c26a166d06b7137d0123b9fd15f6",
      "root": "0x56e81f171bcc55a6ff8345e692c0f86e5b48e01b996cadc001622fb5e363b421"
    }
  ],
  "libraries": [],
  "pending": [],
  "returns": {},
  "timestamp": 1761929389307,
  "chain": 296,
  "commit": "5a6d850"
}