{
  "transactions": [
    {
      "hash": "0x0d57975b56305f806a0e99c0050d2356d3b030070878aa790840ff2eb8197c89",
      "transactionType": "CALL",
      "contractName": null,
      "contractAddress": "0xd7d78c1758f4c26a166d06b7137d0123b9fd15f6",
      "function": "approve(address,uint256)",
      "arguments": [
        "0x7fF8CdCCDa11fE2767fAc29ae50867805D9e04b1",
        "500000000"
      ],
      "transaction": {
        "from": "0xd41b398f6ce5bf08b7d51b22b6adae4fcd04d26a",
        "to": "0xd7d78c1758f4c26a166d06b7137d0123b9fd15f6",
        "gas": "0x91c1",
        "value": "0x0",
        "input": "0x095ea7b30000000000000000000000007ff8cdccda11fe2767fac29ae50867805d9e04b1000000000000000000000000000000000000000000000000000000001dcd6500",
        "nonce": "0xd",
        "chainId": "0x128"
      },
      "additionalContracts": [],
      "isFixedGasLimit": false
    },
    {
      "hash": "0xce83fba2feb8000e1fd25ac3af79689c327288c440ad74c1d748eca570d7c4a7",
      "transactionType": "CALL",
      "contractName": null,
      "contractAddress": "0x7ff8cdccda11fe2767fac29ae50867805d9e04b1",
      "function": "addLiquidity(uint256)",
      "arguments": [
        "500000000"
      ],
      "transaction": {
        "from": "0xd41b398f6ce5bf08b7d51b22b6adae4fcd04d26a",
        "to": "0x7ff8cdccda11fe2767fac29ae50867805d9e04b1",
        "gas": "0x13f16",
        "value": "0x0",
        "input": "0x51c6590a000000000000000000000000000000000000000000000000000000001dcd6500",
        "nonce": "0xe",
        "chainId": "0x128"
      },
      "additionalContracts": [],
      "isFixedGasLimit": false
    }
  ],
  "receipts": [
    {
      "status": "0x1",
      "cumulativeGasUsed": "0x173e0",
      "logs": [
        {
          "address": "0xd7d78c1758f4c26a166d06b7137d0123b9fd15f6",
          "topics": [
            "0x8c5be1e5ebec7d5bd14f71427d1e84f3dd0314c0f7b2291e5b200ac8c7c3b925",
            "0x000000000000000000000000d41b398f6ce5bf08b7d51b22b6adae4fcd04d26a",
            "0x0000000000000000000000007ff8cdccda11fe2767fac29ae50867805d9e04b1"
          ],
          "data": "0x000000000000000000000000000000000000000000000000000000001dcd6500",
          "blockHash": "0x7bbfe37222debd022d3a13a3065b11ab5bc1aef90b3ecb882f1909b8369d64b6",
          "blockNumber": "0x19b1ae3",
          "transactionHash": "0x0d57975b56305f806a0e99c0050d2356d3b030070878aa790840ff2eb8197c89",
          "transactionIndex": "0x3",
          "logIndex": "0x0",
          "removed": false
        }
      ],
      "logsBloom": "0x00000000000000000000000000000000000000000000000001000000000000000000000000000000000000000000000000000000000000000000000000200000000000000000000000000000000000000000000000000000000000000000000000000000000000000000000000000000000000000000000000000000000000000000000000000000000000000000000000000000010000000000000000000000020000000000000010000000000000000000000000000000000000000000000000000000000000000000000000008800000000000000040000000000000000000010000100000000000002000000000000000000000000000400000000000000",
      "type": "0x2",
      "transactionHash": "0x0d57975b56305f806a0e99c0050d2356d3b030070878aa790840ff2eb8197c89",
      "transactionIndex": "0x3",
      "blockHash": "0x7bbfe37222debd022d3a13a3065b11ab5bc1aef90b3ecb882f1909b8369d64b6",
      "blockNumber": "0x19b1ae3",
      "gasUsed": "0x749b",
      "effectiveGasPrice": "0x641dff4c00",
      "from": "0xd41b398f6ce5bf08b7d51b22b6adae4fcd04d26a",
      "to": "0xd7d78c1758f4c26a166d06b7137d0123b9fd15f6",
      "contractAddress": "0xd7d78c1758f4c26a166d06b7137d0123b9fd15f6",
      "root": "0x56e81f171bcc55a6ff8345e692c0f86e5b48e01b996cadc001622fb5e363b421"
    },
    {
      "status": "0x1",
      "cumulativeGasUsed": "0x173e0",
      "logs": [
        {
          "address": "0xd7d78c1758f4c26a166d06b7137d0123b9fd15f6",
          "topics": [
            "0xddf252ad1be2c89b69c2b068fc378daa952ba7f163c4a11628f55a4df523b3ef",
            "0x000000000000000000000000d41b398f6ce5bf08b7d51b22b6adae4fcd04d26a",
            "0x0000000000000000000000007ff8cdccda11fe2767fac29ae50867805d9e04b1"
          ],
          "data": "0x000000000000000000000000000000000000000000000000000000001dcd6500",
          "blockHash": "0x7bbfe37222debd022d3a13a3065b11ab5bc1aef90b3ecb882f1909b8369d64b6",
          "blockNumber": "0x19b1ae3",
          "transactionHash": "0xce83fba2feb8000e1fd25ac3af79689c327288c440ad74c1d748eca570d7c4a7",
          "transactionIndex": "0x4",
          "logIndex": "0x1",
          "removed": false
        }
      ],
      "logsBloom": "0x00000000000000000000000000000000000000000000000001000000000000000000000000000000000000000000000000000000000000000000000000000000000000000000000000000008000000000000000000000000000000000000000000000000000000000000000000000000000000000000000000000010000000000000000000000000000000000000000000000000010000000000000000000000000000000000000010000000000000000000000000000000000000000000000000000002000000000000000000008800000000000000040000000000000000000000000100000000000002000000000000000000000000000400000000000000",
      "type": "0x2",
      "transactionHash": "0xce83fba2feb8000e1fd25ac3af79689c327288c440ad74c1d748eca570d7c4a7",
      "transactionIndex": "0x4",
      "blockHash": "0x7bbfe37222debd022d3a13a3065b11ab5bc1aef90b3ecb882f1909b8369d64b6",
      "blockNumber": "0x19b1ae3",
      "gasUsed": "0xff45",
      "effectiveGasPrice": "0x641dff4c00",
      "from": "0xd41b398f6ce5bf08b7d51b22b6adae4fcd04d26a",
      "to": "0x7ff8cdccda11fe2767fac29ae50867805d9e04b1",
      "contractAddress": "0x7ff8cdccda11fe2767fac29ae50867805d9e04b1",
      "root": "0x56e81f171bcc55a6ff8345e692c0f86e5b48e01b996cadc001622fb5e363b421"
    }
  ],
  "libraries": [],
  "pending": [],
  "returns": {},
  "timestamp": 1761930751596,
  "chain": 296,
  "commit": "5a6d850"
}